{
  "contractName": "dOpticonBorrower",
  "abi": [
    {
      "inputs": [],
      "name": "ONE_YEAR",
      "outputs": [
        {
          "internalType": "uint256",
          "name": "",
          "type": "uint256"
        }
      ],
      "stateMutability": "view",
      "type": "function"
    },
    {
      "inputs": [],
      "name": "_ibTokenPrice",
      "outputs": [
        {
          "internalType": "uint256",
          "name": "",
          "type": "uint256"
        }
      ],
      "stateMutability": "view",
      "type": "function"
    },
    {
      "inputs": [],
      "name": "ibTokenSupply",
      "outputs": [
        {
          "internalType": "uint256",
          "name": "",
          "type": "uint256"
        }
      ],
      "stateMutability": "view",
      "type": "function"
    },
    {
      "inputs": [],
      "name": "lastAction",
      "outputs": [
        {
          "internalType": "uint256",
          "name": "",
          "type": "uint256"
        }
      ],
      "stateMutability": "view",
      "type": "function"
    },
    {
      "inputs": [],
      "name": "totalBorrowed",
      "outputs": [
        {
          "internalType": "uint256",
          "name": "",
          "type": "uint256"
        }
      ],
      "stateMutability": "view",
      "type": "function"
    },
    {
      "inputs": [],
      "name": "totalDeposited",
      "outputs": [
        {
          "internalType": "uint256",
          "name": "",
          "type": "uint256"
        }
      ],
      "stateMutability": "view",
      "type": "function"
    },
    {
      "inputs": [
        {
          "internalType": "uint256",
          "name": "value",
          "type": "uint256"
        }
      ],
      "name": "increaseDeposit",
      "outputs": [],
      "stateMutability": "nonpayable",
      "type": "function"
    },
    {
      "inputs": [
        {
          "internalType": "uint256",
          "name": "value",
          "type": "uint256"
        }
      ],
      "name": "increaseBorrowed",
      "outputs": [],
      "stateMutability": "nonpayable",
      "type": "function"
    },
    {
      "inputs": [],
      "name": "getUtilization",
      "outputs": [
        {
          "internalType": "uint256",
          "name": "",
          "type": "uint256"
        }
      ],
      "stateMutability": "view",
      "type": "function"
    },
    {
      "inputs": [],
      "name": "getBorrowAPR",
      "outputs": [
        {
          "internalType": "uint256",
          "name": "",
          "type": "uint256"
        }
      ],
      "stateMutability": "view",
      "type": "function"
    },
    {
      "inputs": [],
      "name": "getPendingInterest",
      "outputs": [
        {
          "internalType": "uint256",
          "name": "",
          "type": "uint256"
        }
      ],
      "stateMutability": "view",
      "type": "function"
    },
    {
      "inputs": [],
      "name": "ibTokenPrice",
      "outputs": [
        {
          "internalType": "uint256",
          "name": "",
          "type": "uint256"
        }
      ],
      "stateMutability": "view",
      "type": "function"
    },
    {
      "inputs": [],
      "name": "update",
      "outputs": [],
      "stateMutability": "nonpayable",
      "type": "function"
    }
  ],
  "bytecode": "0x60806040526301e13380600355670de0b6b3a7640000600455600060055534801561002957600080fd5b50610a31806100396000396000f3fe608060405234801561001057600080fd5b50600436106100cf5760003560e01c806378ae83761161008c578063a2e6204511610066578063a2e62045146101de578063d3289842146101e8578063e96460aa14610206578063ff50abdc14610224576100cf565b806378ae8376146101865780637eb71131146101a257806389f71d53146101c0576100cf565b806316d3bfbb146100d4578063375a9e2f146100f257806338b0056d146101105780634c19386c1461012e5780635106df991461014c5780636c1d69dc1461016a575b600080fd5b6100dc610242565b6040516100e99190610684565b60405180910390f35b6100fa610248565b6040516101079190610684565b60405180910390f35b61011861024e565b6040516101259190610684565b60405180910390f35b6101366102c1565b6040516101439190610684565b60405180910390f35b6101546102c7565b6040516101619190610684565b60405180910390f35b610184600480360381019061017f91906106d0565b610326565b005b6101a0600480360381019061019b91906106d0565b61036b565b005b6101aa6103b1565b6040516101b79190610684565b60405180910390f35b6101c86103da565b6040516101d59190610684565b60405180910390f35b6101e66103e0565b005b6101f061042a565b6040516101fd9190610684565b60405180910390f35b61020e610430565b60405161021b9190610684565b60405180910390f35b61022c610471565b6040516102399190610684565b60405180910390f35b60035481565b60045481565b6000806102596103b1565b9050600061028c60028361026d919061086c565b6ec097ce7bc90715b34b9f100000000061028791906108b7565b610477565b670de0b6b3a764000061029f91906108b7565b905060026003826102b091906108eb565b6102ba9190610974565b9250505090565b60015481565b6000806102d261024e565b90506000670de0b6b3a76400006003546102ec91906108eb565b600254426102fa91906108b7565b6001548461030891906108eb565b61031291906108eb565b61031c9190610974565b9050809250505090565b61032e6103e0565b670de0b6b3a76400008161034291906108eb565b60008082825461035291906109a5565b92505081905550426002819055506103686103e0565b50565b6103736103e0565b670de0b6b3a76400008161038791906108eb565b6001600082825461039891906109a5565b92505081905550426002819055506103ae6103e0565b50565b60008054670de0b6b3a76400006001546103cb91906108eb565b6103d59190610974565b905090565b60025481565b60006103ea6102c7565b9050600054670de0b6b3a76400008260005461040691906109a5565b61041091906108eb565b61041a9190610974565b6004819055504260028190555050565b60055481565b60008061043b6102c7565b9050600054670de0b6b3a76400008260005461045791906109a5565b61046191906108eb565b61046b9190610974565b91505090565b60005481565b60008082141561048a576000905061056c565b6000600161049784610571565b901c6001901b905060018184816104b1576104b0610945565b5b048201901c905060018184816104ca576104c9610945565b5b048201901c905060018184816104e3576104e2610945565b5b048201901c905060018184816104fc576104fb610945565b5b048201901c9050600181848161051557610514610945565b5b048201901c9050600181848161052e5761052d610945565b5b048201901c9050600181848161054757610546610945565b5b048201901c90506105688182858161056257610561610945565b5b04610652565b9150505b919050565b600080600090506000608084901c111561059357608083901c92506080810190505b6000604084901c11156105ae57604083901c92506040810190505b6000602084901c11156105c957602083901c92506020810190505b6000601084901c11156105e457601083901c92506010810190505b6000600884901c11156105ff57600883901c92506008810190505b6000600484901c111561061a57600483901c92506004810190505b6000600284901c111561063557600283901c92506002810190505b6000600184901c1115610649576001810190505b80915050919050565b60008183106106615781610663565b825b905092915050565b6000819050919050565b61067e8161066b565b82525050565b60006020820190506106996000830184610675565b92915050565b600080fd5b6106ad8161066b565b81146106b857600080fd5b50565b6000813590506106ca816106a4565b92915050565b6000602082840312156106e6576106e561069f565b5b60006106f4848285016106bb565b91505092915050565b7f4e487b7100000000000000000000000000000000000000000000000000000000600052601160045260246000fd5b60008160011c9050919050565b6000808291508390505b60018511156107835780860481111561075f5761075e6106fd565b5b600185161561076e5780820291505b808102905061077c8561072c565b9450610743565b94509492505050565b60008261079c5760019050610858565b816107aa5760009050610858565b81600181146107c057600281146107ca576107f9565b6001915050610858565b60ff8411156107dc576107db6106fd565b5b8360020a9150848211156107f3576107f26106fd565b5b50610858565b5060208310610133831016604e8410600b841016171561082e5782820a905083811115610829576108286106fd565b5b610858565b61083b8484846001610739565b92509050818404811115610852576108516106fd565b5b81810290505b9392505050565b600060ff82169050919050565b60006108778261066b565b91506108828361085f565b92506108af7fffffffffffffffffffffffffffffffffffffffffffffffffffffffffffffffff848461078c565b905092915050565b60006108c28261066b565b91506108cd8361066b565b9250828210156108e0576108df6106fd565b5b828203905092915050565b60006108f68261066b565b91506109018361066b565b9250817fffffffffffffffffffffffffffffffffffffffffffffffffffffffffffffffff048311821515161561093a576109396106fd565b5b828202905092915050565b7f4e487b7100000000000000000000000000000000000000000000000000000000600052601260045260246000fd5b600061097f8261066b565b915061098a8361066b565b92508261099a57610999610945565b5b828204905092915050565b60006109b08261066b565b91506109bb8361066b565b9250827fffffffffffffffffffffffffffffffffffffffffffffffffffffffffffffffff038211156109f0576109ef6106fd565b5b82820190509291505056fea2646970667358221220783df9c25d89ede7298de2fd4e33c8f3d82a016b0829804b350f3c6dc90de65864736f6c634300080b0033",
  "immutableReferences": {},
  "source": "pragma solidity ^0.8.0;\n\nimport \"@openzeppelin/contracts/utils/math/Math.sol\";\n\ncontract dOpticonBorrower {\n    using Math for uint256;\n\n    uint256 public totalDeposited;\n    uint256 public totalBorrowed;\n    uint256 public lastAction;\n    uint256 public ONE_YEAR = 365 * 24 * 60 * 60;\n    uint256 public _ibTokenPrice = 1e18;\n    uint256 public ibTokenSupply = 0;\n\n    function increaseDeposit(uint256 value) public {\n        update();\n        totalDeposited += value * 1e18;\n        lastAction = block.timestamp;\n        update();\n    }\n\n    function increaseBorrowed(uint256 value) public {\n        update();\n        totalBorrowed += value * 1e18;\n        lastAction = block.timestamp;\n        update();\n    }\n\n    function getUtilization() public view returns (uint256) {\n        return ((totalBorrowed * 1e18) / totalDeposited);\n    }\n\n    function getBorrowAPR() public view returns (uint256) {\n        uint256 utilization = getUtilization();\n        uint256 sqrt = 1e18 - (1e36 - utilization**2).sqrt();\n        return (sqrt * 3) / 2;\n    }\n\n    function getPendingInterest() public view returns (uint256) {\n        uint256 apr = getBorrowAPR();\n        uint256 pendingInterest = (apr *\n            totalBorrowed *\n            (block.timestamp - lastAction)) / (ONE_YEAR * 1e18);\n        return pendingInterest;\n    }\n\n    function ibTokenPrice() public view returns (uint256) {\n        uint256 pendingInterest = getPendingInterest();\n        return ((totalDeposited + pendingInterest) * 1e18) / totalDeposited;\n    }\n\n    function update() public {\n        uint256 pendingInterest = getPendingInterest();\n        _ibTokenPrice =\n            ((totalDeposited + pendingInterest) * 1e18) /\n            totalDeposited;\n        lastAction = block.timestamp;\n    }\n}\n",
  "sourcePath": "/Users/ibrahimkecici/Desktop/Dev/dopticon/solidity/contracts/dOpticonBorrower.sol",
  "compiler": {
    "name": "solc",
    "version": "0.8.11+commit.d7f03943.Emscripten.clang"
  },
  "schemaVersion": "3.4.4",
  "updatedAt": "2022-12-06T12:25:03.240Z",
  "devdoc": {
    "kind": "dev",
    "methods": {},
    "version": 1
  },
  "userdoc": {
    "kind": "user",
    "methods": {},
    "version": 1
  }
}