{
  "contractName": "dOpticonBorrower",
  "abi": [
    {
      "inputs": [],
      "stateMutability": "nonpayable",
      "type": "constructor"
    },
    {
      "anonymous": false,
      "inputs": [
        {
          "indexed": true,
          "internalType": "address",
          "name": "owner",
          "type": "address"
        },
        {
          "indexed": true,
          "internalType": "address",
          "name": "spender",
          "type": "address"
        },
        {
          "indexed": false,
          "internalType": "uint256",
          "name": "value",
          "type": "uint256"
        }
      ],
      "name": "Approval",
      "type": "event"
    },
    {
      "anonymous": false,
      "inputs": [
        {
          "indexed": true,
          "internalType": "address",
          "name": "from",
          "type": "address"
        },
        {
          "indexed": true,
          "internalType": "address",
          "name": "to",
          "type": "address"
        },
        {
          "indexed": false,
          "internalType": "uint256",
          "name": "value",
          "type": "uint256"
        }
      ],
      "name": "Transfer",
      "type": "event"
    },
    {
      "inputs": [
        {
          "internalType": "address",
          "name": "owner",
          "type": "address"
        },
        {
          "internalType": "address",
          "name": "spender",
          "type": "address"
        }
      ],
      "name": "allowance",
      "outputs": [
        {
          "internalType": "uint256",
          "name": "",
          "type": "uint256"
        }
      ],
      "stateMutability": "view",
      "type": "function"
    },
    {
      "inputs": [
        {
          "internalType": "address",
          "name": "spender",
          "type": "address"
        },
        {
          "internalType": "uint256",
          "name": "amount",
          "type": "uint256"
        }
      ],
      "name": "approve",
      "outputs": [
        {
          "internalType": "bool",
          "name": "",
          "type": "bool"
        }
      ],
      "stateMutability": "nonpayable",
      "type": "function"
    },
    {
      "inputs": [
        {
          "internalType": "address",
          "name": "account",
          "type": "address"
        }
      ],
      "name": "balanceOf",
      "outputs": [
        {
          "internalType": "uint256",
          "name": "",
          "type": "uint256"
        }
      ],
      "stateMutability": "view",
      "type": "function"
    },
    {
      "inputs": [
        {
          "internalType": "uint256",
          "name": "amount",
          "type": "uint256"
        }
      ],
      "name": "burn",
      "outputs": [],
      "stateMutability": "nonpayable",
      "type": "function"
    },
    {
      "inputs": [
        {
          "internalType": "address",
          "name": "account",
          "type": "address"
        },
        {
          "internalType": "uint256",
          "name": "amount",
          "type": "uint256"
        }
      ],
      "name": "burnFrom",
      "outputs": [],
      "stateMutability": "nonpayable",
      "type": "function"
    },
    {
      "inputs": [],
      "name": "decimals",
      "outputs": [
        {
          "internalType": "uint8",
          "name": "",
          "type": "uint8"
        }
      ],
      "stateMutability": "view",
      "type": "function"
    },
    {
      "inputs": [
        {
          "internalType": "address",
          "name": "spender",
          "type": "address"
        },
        {
          "internalType": "uint256",
          "name": "subtractedValue",
          "type": "uint256"
        }
      ],
      "name": "decreaseAllowance",
      "outputs": [
        {
          "internalType": "bool",
          "name": "",
          "type": "bool"
        }
      ],
      "stateMutability": "nonpayable",
      "type": "function"
    },
    {
      "inputs": [
        {
          "internalType": "address",
          "name": "spender",
          "type": "address"
        },
        {
          "internalType": "uint256",
          "name": "addedValue",
          "type": "uint256"
        }
      ],
      "name": "increaseAllowance",
      "outputs": [
        {
          "internalType": "bool",
          "name": "",
          "type": "bool"
        }
      ],
      "stateMutability": "nonpayable",
      "type": "function"
    },
    {
      "inputs": [],
      "name": "lastAction",
      "outputs": [
        {
          "internalType": "uint256",
          "name": "",
          "type": "uint256"
        }
      ],
      "stateMutability": "view",
      "type": "function"
    },
    {
      "inputs": [],
      "name": "name",
      "outputs": [
        {
          "internalType": "string",
          "name": "",
          "type": "string"
        }
      ],
      "stateMutability": "view",
      "type": "function"
    },
    {
      "inputs": [],
      "name": "symbol",
      "outputs": [
        {
          "internalType": "string",
          "name": "",
          "type": "string"
        }
      ],
      "stateMutability": "view",
      "type": "function"
    },
    {
      "inputs": [],
      "name": "token",
      "outputs": [
        {
          "internalType": "contract IERC20",
          "name": "",
          "type": "address"
        }
      ],
      "stateMutability": "view",
      "type": "function"
    },
    {
      "inputs": [],
      "name": "totalBorrowed",
      "outputs": [
        {
          "internalType": "uint256",
          "name": "",
          "type": "uint256"
        }
      ],
      "stateMutability": "view",
      "type": "function"
    },
    {
      "inputs": [],
      "name": "totalSupply",
      "outputs": [
        {
          "internalType": "uint256",
          "name": "",
          "type": "uint256"
        }
      ],
      "stateMutability": "view",
      "type": "function"
    },
    {
      "inputs": [
        {
          "internalType": "address",
          "name": "to",
          "type": "address"
        },
        {
          "internalType": "uint256",
          "name": "amount",
          "type": "uint256"
        }
      ],
      "name": "transfer",
      "outputs": [
        {
          "internalType": "bool",
          "name": "",
          "type": "bool"
        }
      ],
      "stateMutability": "nonpayable",
      "type": "function"
    },
    {
      "inputs": [
        {
          "internalType": "address",
          "name": "from",
          "type": "address"
        },
        {
          "internalType": "address",
          "name": "to",
          "type": "address"
        },
        {
          "internalType": "uint256",
          "name": "amount",
          "type": "uint256"
        }
      ],
      "name": "transferFrom",
      "outputs": [
        {
          "internalType": "bool",
          "name": "",
          "type": "bool"
        }
      ],
      "stateMutability": "nonpayable",
      "type": "function"
    },
    {
      "inputs": [
        {
          "internalType": "uint256",
          "name": "amount",
          "type": "uint256"
        }
      ],
      "name": "deposit",
      "outputs": [],
      "stateMutability": "nonpayable",
      "type": "function"
    },
    {
      "inputs": [
        {
          "internalType": "uint256",
          "name": "amount",
          "type": "uint256"
        }
      ],
      "name": "withdraw",
      "outputs": [],
      "stateMutability": "nonpayable",
      "type": "function"
    },
    {
      "inputs": [],
      "name": "totalToken",
      "outputs": [
        {
          "internalType": "uint256",
          "name": "",
          "type": "uint256"
        }
      ],
      "stateMutability": "view",
      "type": "function"
    },
    {
      "inputs": [
        {
          "internalType": "uint256",
          "name": "value",
          "type": "uint256"
        }
      ],
      "name": "pendingInterest",
      "outputs": [
        {
          "internalType": "uint256",
          "name": "",
          "type": "uint256"
        }
      ],
      "stateMutability": "view",
      "type": "function"
    }
  ],
  "bytecode": "0x60806040526301e133806008553480156200001957600080fd5b506040518060400160405280601d81526020017f644f707469636f6e2045544820496e7465726573742042656172696e67000000815250604051806040016040528060058152602001640c8e08aa8960db1b81525081600390816200007f919062000166565b5060046200008e828262000166565b5050600780546001600160a01b031916738d4243b9c4ba43db84d6cca3035debb370e288e5179055504260065562000232565b634e487b7160e01b600052604160045260246000fd5b600181811c90821680620000ec57607f821691505b6020821081036200010d57634e487b7160e01b600052602260045260246000fd5b50919050565b601f8211156200016157600081815260208120601f850160051c810160208610156200013c5750805b601f850160051c820191505b818110156200015d5782815560010162000148565b5050505b505050565b81516001600160401b03811115620001825762000182620000c1565b6200019a81620001938454620000d7565b8462000113565b602080601f831160018114620001d25760008415620001b95750858301515b600019600386901b1c1916600185901b1785556200015d565b600085815260208120601f198616915b828110156200020357888601518255948401946001909101908401620001e2565b5085821015620002225787850151600019600388901b60f8161c191681555b5050505050600190811b01905550565b6114e780620002426000396000f3fe608060405234801561001057600080fd5b506004361061016c5760003560e01c8063626be567116100cd578063a457c2d711610081578063b6b55f2511610066578063b6b55f25146102b8578063dd62ed3e146102cb578063fc0c546a1461030457600080fd5b8063a457c2d714610292578063a9059cbb146102a557600080fd5b806379cc6790116100b257806379cc67901461026e57806389f71d531461028157806395d89b411461028a57600080fd5b8063626be5671461023d57806370a082311461024557600080fd5b80632fc11c0f116101245780633950935111610109578063395093511461020e57806342966c68146102215780634c19386c1461023457600080fd5b80632fc11c0f146101ec578063313ce567146101ff57600080fd5b806318160ddd1161015557806318160ddd146101b257806323b872dd146101c45780632e1a7d4d146101d757600080fd5b806306fdde0314610171578063095ea7b31461018f575b600080fd5b61017961032f565b6040516101869190611156565b60405180910390f35b6101a261019d3660046111e0565b6103c1565b6040519015158152602001610186565b6002545b604051908152602001610186565b6101a26101d236600461120a565b6103db565b6101ea6101e5366004611246565b6103ff565b005b6101b66101fa366004611246565b6104fc565b60405160128152602001610186565b6101a261021c3660046111e0565b610608565b6101ea61022f366004611246565b610647565b6101b660055481565b6101b6610654565b6101b661025336600461125f565b6001600160a01b031660009081526020819052604090205490565b6101ea61027c3660046111e0565b6106ed565b6101b660065481565b610179610706565b6101a26102a03660046111e0565b610715565b6101a26102b33660046111e0565b6107c4565b6101ea6102c6366004611246565b6107d2565b6101b66102d936600461127a565b6001600160a01b03918216600090815260016020908152604080832093909416825291909152205490565b600754610317906001600160a01b031681565b6040516001600160a01b039091168152602001610186565b60606003805461033e906112ad565b80601f016020809104026020016040519081016040528092919081815260200182805461036a906112ad565b80156103b75780601f1061038c576101008083540402835291602001916103b7565b820191906000526020600020905b81548152906001019060200180831161039a57829003601f168201915b5050505050905090565b6000336103cf8185856108f2565b60019150505b92915050565b6000336103e9858285610a4a565b6103f4858585610ad6565b506001949350505050565b6000600654421115610435576000610416826104fc565b9050806005600082825461042a91906112fd565b909155505042600655505b600061044060025490565b610448610654565b6104529085611315565b61045c919061134a565b90506104683384610cc3565b6007546040517fa9059cbb000000000000000000000000000000000000000000000000000000008152336004820152602481018390526001600160a01b039091169063a9059cbb906044016020604051808303816000875af11580156104d2573d6000803e3d6000fd5b505050506040513d601f19601f820116820180604052508101906104f6919061136c565b50505050565b60006006544211156105fb57600060065442610518919061138e565b6007546040517f70a0823100000000000000000000000000000000000000000000000000000000815230600482015291925060009185916001600160a01b0316906370a0823190602401602060405180830381865afa15801561057f573d6000803e3d6000fd5b505050506040513d601f19601f820116820180604052508101906105a391906113a5565b6105ad919061138e565b9050670de0b6b3a7640000600554836008546105cb60055486610e2c565b6105d5919061134a565b6105df9190611315565b6105e99190611315565b6105f3919061134a565b949350505050565b506000919050565b919050565b3360008181526001602090815260408083206001600160a01b03871684529091528120549091906103cf90829086906106429087906112fd565b6108f2565b6106513382610cc3565b50565b6005546007546040517f70a08231000000000000000000000000000000000000000000000000000000008152306004820152600092916001600160a01b0316906370a0823190602401602060405180830381865afa1580156106ba573d6000803e3d6000fd5b505050506040513d601f19601f820116820180604052508101906106de91906113a5565b6106e891906112fd565b905090565b6106f8823383610a4a565b6107028282610cc3565b5050565b60606004805461033e906112ad565b3360008181526001602090815260408083206001600160a01b0387168452909152812054909190838110156107b75760405162461bcd60e51b815260206004820152602560248201527f45524332303a2064656372656173656420616c6c6f77616e63652062656c6f7760448201527f207a65726f00000000000000000000000000000000000000000000000000000060648201526084015b60405180910390fd5b6103f482868684036108f2565b6000336103cf818585610ad6565b6007546040517f23b872dd0000000000000000000000000000000000000000000000000000000081523360048201523060248201526044810183905282916001600160a01b0316906323b872dd906064016020604051808303816000875af1158015610842573d6000803e3d6000fd5b505050506040513d601f19601f82011682018060405250810190610866919061136c565b508160065442111561089c57600061087d826104fc565b9050806005600082825461089191906112fd565b909155505042600655505b6108ed33846108a9610654565b6108b3919061138e565b156108e757846108c1610654565b6108cb919061138e565b6002546108d89087611315565b6108e2919061134a565b610ecf565b84610ecf565b505050565b6001600160a01b03831661096d5760405162461bcd60e51b8152602060048201526024808201527f45524332303a20617070726f76652066726f6d20746865207a65726f2061646460448201527f726573730000000000000000000000000000000000000000000000000000000060648201526084016107ae565b6001600160a01b0382166109e95760405162461bcd60e51b815260206004820152602260248201527f45524332303a20617070726f766520746f20746865207a65726f20616464726560448201527f737300000000000000000000000000000000000000000000000000000000000060648201526084016107ae565b6001600160a01b0383811660008181526001602090815260408083209487168084529482529182902085905590518481527f8c5be1e5ebec7d5bd14f71427d1e84f3dd0314c0f7b2291e5b200ac8c7c3b925910160405180910390a3505050565b6001600160a01b0383811660009081526001602090815260408083209386168352929052205460001981146104f65781811015610ac95760405162461bcd60e51b815260206004820152601d60248201527f45524332303a20696e73756666696369656e7420616c6c6f77616e636500000060448201526064016107ae565b6104f684848484036108f2565b6001600160a01b038316610b525760405162461bcd60e51b815260206004820152602560248201527f45524332303a207472616e736665722066726f6d20746865207a65726f20616460448201527f647265737300000000000000000000000000000000000000000000000000000060648201526084016107ae565b6001600160a01b038216610bce5760405162461bcd60e51b815260206004820152602360248201527f45524332303a207472616e7366657220746f20746865207a65726f206164647260448201527f657373000000000000000000000000000000000000000000000000000000000060648201526084016107ae565b6001600160a01b03831660009081526020819052604090205481811015610c5d5760405162461bcd60e51b815260206004820152602660248201527f45524332303a207472616e7366657220616d6f756e742065786365656473206260448201527f616c616e6365000000000000000000000000000000000000000000000000000060648201526084016107ae565b6001600160a01b03848116600081815260208181526040808320878703905593871680835291849020805487019055925185815290927fddf252ad1be2c89b69c2b068fc378daa952ba7f163c4a11628f55a4df523b3ef910160405180910390a36104f6565b6001600160a01b038216610d3f5760405162461bcd60e51b815260206004820152602160248201527f45524332303a206275726e2066726f6d20746865207a65726f2061646472657360448201527f730000000000000000000000000000000000000000000000000000000000000060648201526084016107ae565b6001600160a01b03821660009081526020819052604090205481811015610dce5760405162461bcd60e51b815260206004820152602260248201527f45524332303a206275726e20616d6f756e7420657863656564732062616c616e60448201527f636500000000000000000000000000000000000000000000000000000000000060648201526084016107ae565b6001600160a01b0383166000818152602081815260408083208686039055600280548790039055518581529192917fddf252ad1be2c89b69c2b068fc378daa952ba7f163c4a11628f55a4df523b3ef910160405180910390a3505050565b600081600003610e3e575060006103d5565b6000610e4a8484610f8e565b9050670de0b6b3a7640000811015610ebe576000610e8a610e6c6002846114a2565b610e85906ec097ce7bc90715b34b9f100000000061138e565b610fc4565b610e9c90670de0b6b3a764000061138e565b90506002610eab826003611315565b610eb5919061134a565b925050506103d5565b6714d1120d7b1600009150506103d5565b6001600160a01b038216610f255760405162461bcd60e51b815260206004820152601f60248201527f45524332303a206d696e7420746f20746865207a65726f20616464726573730060448201526064016107ae565b8060026000828254610f3791906112fd565b90915550506001600160a01b038216600081815260208181526040808320805486019055518481527fddf252ad1be2c89b69c2b068fc378daa952ba7f163c4a11628f55a4df523b3ef910160405180910390a35050565b600081600003610fa0575060006103d5565b81610fb384670de0b6b3a7640000611315565b610fbd919061134a565b9392505050565b600081600003610fd657506000919050565b60006001610fe3846110ac565b901c6001901b90506001818481610ffc57610ffc611334565b048201901c9050600181848161101457611014611334565b048201901c9050600181848161102c5761102c611334565b048201901c9050600181848161104457611044611334565b048201901c9050600181848161105c5761105c611334565b048201901c9050600181848161107457611074611334565b048201901c9050600181848161108c5761108c611334565b048201901c9050610fbd818285816110a6576110a6611334565b04611140565b600080608083901c156110c157608092831c92015b604083901c156110d357604092831c92015b602083901c156110e557602092831c92015b601083901c156110f757601092831c92015b600883901c1561110957600892831c92015b600483901c1561111b57600492831c92015b600283901c1561112d57600292831c92015b600183901c156103d55760010192915050565b600081831061114f5781610fbd565b5090919050565b600060208083528351808285015260005b8181101561118357858101830151858201604001528201611167565b81811115611195576000604083870101525b50601f017fffffffffffffffffffffffffffffffffffffffffffffffffffffffffffffffe016929092016040019392505050565b80356001600160a01b038116811461060357600080fd5b600080604083850312156111f357600080fd5b6111fc836111c9565b946020939093013593505050565b60008060006060848603121561121f57600080fd5b611228846111c9565b9250611236602085016111c9565b9150604084013590509250925092565b60006020828403121561125857600080fd5b5035919050565b60006020828403121561127157600080fd5b610fbd826111c9565b6000806040838503121561128d57600080fd5b611296836111c9565b91506112a4602084016111c9565b90509250929050565b600181811c908216806112c157607f821691505b6020821081036112e157634e487b7160e01b600052602260045260246000fd5b50919050565b634e487b7160e01b600052601160045260246000fd5b60008219821115611310576113106112e7565b500190565b600081600019048311821515161561132f5761132f6112e7565b500290565b634e487b7160e01b600052601260045260246000fd5b60008261136757634e487b7160e01b600052601260045260246000fd5b500490565b60006020828403121561137e57600080fd5b81518015158114610fbd57600080fd5b6000828210156113a0576113a06112e7565b500390565b6000602082840312156113b757600080fd5b5051919050565b600181815b808511156113f95781600019048211156113df576113df6112e7565b808516156113ec57918102915b93841c93908002906113c3565b509250929050565b600082611410575060016103d5565b8161141d575060006103d5565b8160018114611433576002811461143d57611459565b60019150506103d5565b60ff84111561144e5761144e6112e7565b50506001821b6103d5565b5060208310610133831016604e8410600b841016171561147c575081810a6103d5565b61148683836113be565b806000190482111561149a5761149a6112e7565b029392505050565b6000610fbd60ff84168361140156fea264697066735822122035e17dba3236e5ad6b9bda976062c2015bbdd179c40be3b18336c2b89b46b52764736f6c634300080f0033",
  "immutableReferences": {},
  "source": "pragma solidity >=0.5.0;\n\nimport \"@openzeppelin/contracts/utils/math/Math.sol\";\nimport \"@openzeppelin/contracts/token/ERC20/ERC20.sol\";\nimport \"@openzeppelin/contracts/token/ERC20/extensions/ERC20Burnable.sol\";\n\ncontract dOpticonBorrower is ERC20, ERC20Burnable {\n    using Math for uint256;\n    uint256 public totalBorrowed;\n    uint256 public lastAction;\n    IERC20 public token;\n    uint256 internal ONE_YEAR = 365 days;\n\n    modifier update(uint256 value) {\n        if (block.timestamp > lastAction) {\n            uint256 interest = pendingInterest(value);\n            totalBorrowed += interest;\n            lastAction = block.timestamp;\n        }\n        _;\n    }\n\n    modifier transferToken(uint256 amount) {\n        token.transferFrom(msg.sender, address(this), amount);\n        _;\n    }\n\n    constructor() ERC20(\"dOpticon ETH Interest Bearing\", \"dpETH\") {\n        token = IERC20(0x8d4243b9C4Ba43dB84D6CcA3035DEbb370e288e5);\n        lastAction = block.timestamp;\n    }\n\n    function getBorrowAPR(\n        uint256 debt,\n        uint256 total\n    ) internal pure returns (uint256) {\n        if (total == 0) {\n            return 0;\n        }\n        uint256 utilization = getUtilization(debt, total);\n        if (utilization < 1e18) {\n            uint256 sqrt = 1e18 - (1e36 - utilization ** 2).sqrt();\n            return (sqrt * 3) / 2;\n        } else {\n            return (1e18 * 3) / 2;\n        }\n    }\n\n    function getUtilization(\n        uint256 debt,\n        uint256 total\n    ) internal pure returns (uint256) {\n        if (total == 0) {\n            return 0;\n        }\n        return ((debt * 1e18) / total);\n    }\n\n    function deposit(\n        uint256 amount\n    ) public transferToken(amount) update(amount) {\n        _mint(\n            msg.sender,\n            (totalToken() - amount) == 0\n                ? amount\n                : (amount * totalSupply()) / (totalToken() - amount)\n        );\n    }\n\n    function withdraw(uint256 amount) public update(0) {\n        uint256 tokenAmount = (amount * totalToken()) / totalSupply();\n        _burn(msg.sender, amount);\n        token.transfer(msg.sender, tokenAmount);\n    }\n\n    /*\n    function borrow(uint256 amount) public update(0) {\n        token.transfer(msg.sender, amount);\n        totalBorrowed += amount;\n    }\n    */\n    function totalToken() public view returns (uint256) {\n        return token.balanceOf(address(this)) + totalBorrowed;\n    }\n\n    function pendingInterest(uint256 value) public view returns (uint256) {\n        if (block.timestamp > lastAction) {\n            uint256 timePast = block.timestamp - lastAction;\n            uint256 balance = token.balanceOf(address(this)) - value;\n            return\n                ((getBorrowAPR(totalBorrowed, balance) / ONE_YEAR) *\n                    timePast *\n                    totalBorrowed) / 1e18;\n        } else {\n            return 0;\n        }\n    }\n}\n",
  "sourcePath": "/Users/ibrahimkecici/Documents/dOpticon-contracts/contracts/dOpticonBorrower.sol",
  "compiler": {
    "name": "solc",
    "version": "0.8.15+commit.e14f2714.Emscripten.clang"
  },
  "schemaVersion": "3.4.4",
  "updatedAt": "2022-12-15T08:12:27.975Z",
  "devdoc": {
    "kind": "dev",
    "methods": {
      "allowance(address,address)": {
        "details": "See {IERC20-allowance}."
      },
      "approve(address,uint256)": {
        "details": "See {IERC20-approve}. NOTE: If `amount` is the maximum `uint256`, the allowance is not updated on `transferFrom`. This is semantically equivalent to an infinite approval. Requirements: - `spender` cannot be the zero address."
      },
      "balanceOf(address)": {
        "details": "See {IERC20-balanceOf}."
      },
      "burn(uint256)": {
        "details": "Destroys `amount` tokens from the caller. See {ERC20-_burn}."
      },
      "burnFrom(address,uint256)": {
        "details": "Destroys `amount` tokens from `account`, deducting from the caller's allowance. See {ERC20-_burn} and {ERC20-allowance}. Requirements: - the caller must have allowance for ``accounts``'s tokens of at least `amount`."
      },
      "decimals()": {
        "details": "Returns the number of decimals used to get its user representation. For example, if `decimals` equals `2`, a balance of `505` tokens should be displayed to a user as `5.05` (`505 / 10 ** 2`). Tokens usually opt for a value of 18, imitating the relationship between Ether and Wei. This is the value {ERC20} uses, unless this function is overridden; NOTE: This information is only used for _display_ purposes: it in no way affects any of the arithmetic of the contract, including {IERC20-balanceOf} and {IERC20-transfer}."
      },
      "decreaseAllowance(address,uint256)": {
        "details": "Atomically decreases the allowance granted to `spender` by the caller. This is an alternative to {approve} that can be used as a mitigation for problems described in {IERC20-approve}. Emits an {Approval} event indicating the updated allowance. Requirements: - `spender` cannot be the zero address. - `spender` must have allowance for the caller of at least `subtractedValue`."
      },
      "increaseAllowance(address,uint256)": {
        "details": "Atomically increases the allowance granted to `spender` by the caller. This is an alternative to {approve} that can be used as a mitigation for problems described in {IERC20-approve}. Emits an {Approval} event indicating the updated allowance. Requirements: - `spender` cannot be the zero address."
      },
      "name()": {
        "details": "Returns the name of the token."
      },
      "symbol()": {
        "details": "Returns the symbol of the token, usually a shorter version of the name."
      },
      "totalSupply()": {
        "details": "See {IERC20-totalSupply}."
      },
      "transfer(address,uint256)": {
        "details": "See {IERC20-transfer}. Requirements: - `to` cannot be the zero address. - the caller must have a balance of at least `amount`."
      },
      "transferFrom(address,address,uint256)": {
        "details": "See {IERC20-transferFrom}. Emits an {Approval} event indicating the updated allowance. This is not required by the EIP. See the note at the beginning of {ERC20}. NOTE: Does not update the allowance if the current allowance is the maximum `uint256`. Requirements: - `from` and `to` cannot be the zero address. - `from` must have a balance of at least `amount`. - the caller must have allowance for ``from``'s tokens of at least `amount`."
      }
    },
    "version": 1
  },
  "userdoc": {
    "kind": "user",
    "methods": {},
    "version": 1
  }
}